{
  "contractName": "cwToken",
  "abi": [
    {
      "constant": true,
      "inputs": [],
      "name": "name",
      "outputs": [
        {
          "name": "",
          "type": "string"
        }
      ],
      "payable": false,
      "stateMutability": "view",
      "type": "function",
      "signature": "0x06fdde03"
    },
    {
      "constant": false,
      "inputs": [
        {
          "name": "spender",
          "type": "address"
        },
        {
          "name": "value",
          "type": "uint256"
        }
      ],
      "name": "approve",
      "outputs": [
        {
          "name": "",
          "type": "bool"
        }
      ],
      "payable": false,
      "stateMutability": "nonpayable",
      "type": "function",
      "signature": "0x095ea7b3"
    },
    {
      "constant": true,
      "inputs": [
        {
          "name": "",
          "type": "uint256"
        }
      ],
      "name": "campaigns",
      "outputs": [
        {
          "name": "campaignID",
          "type": "uint256"
        },
        {
          "name": "name",
          "type": "string"
        },
        {
          "name": "dedicatedFunding",
          "type": "uint256"
        },
        {
          "name": "votes",
          "type": "uint256"
        },
        {
          "name": "approvalState",
          "type": "bool"
        }
      ],
      "payable": false,
      "stateMutability": "view",
      "type": "function",
      "signature": "0x141961bc"
    },
    {
      "constant": true,
      "inputs": [],
      "name": "totalSupply",
      "outputs": [
        {
          "name": "",
          "type": "uint256"
        }
      ],
      "payable": false,
      "stateMutability": "view",
      "type": "function",
      "signature": "0x18160ddd"
    },
    {
      "constant": false,
      "inputs": [
        {
          "name": "from",
          "type": "address"
        },
        {
          "name": "to",
          "type": "address"
        },
        {
          "name": "value",
          "type": "uint256"
        }
      ],
      "name": "transferFrom",
      "outputs": [
        {
          "name": "",
          "type": "bool"
        }
      ],
      "payable": false,
      "stateMutability": "nonpayable",
      "type": "function",
      "signature": "0x23b872dd"
    },
    {
      "constant": true,
      "inputs": [],
      "name": "decimals",
      "outputs": [
        {
          "name": "",
          "type": "uint8"
        }
      ],
      "payable": false,
      "stateMutability": "view",
      "type": "function",
      "signature": "0x313ce567"
    },
    {
      "constant": true,
      "inputs": [],
      "name": "_decimals",
      "outputs": [
        {
          "name": "",
          "type": "uint8"
        }
      ],
      "payable": false,
      "stateMutability": "view",
      "type": "function",
      "signature": "0x32424aa3"
    },
    {
      "constant": false,
      "inputs": [
        {
          "name": "spender",
          "type": "address"
        },
        {
          "name": "addedValue",
          "type": "uint256"
        }
      ],
      "name": "increaseAllowance",
      "outputs": [
        {
          "name": "",
          "type": "bool"
        }
      ],
      "payable": false,
      "stateMutability": "nonpayable",
      "type": "function",
      "signature": "0x39509351"
    },
    {
      "constant": true,
      "inputs": [],
      "name": "_totalSupply",
      "outputs": [
        {
          "name": "",
          "type": "uint256"
        }
      ],
      "payable": false,
      "stateMutability": "view",
      "type": "function",
      "signature": "0x3eaaf86b"
    },
    {
      "constant": false,
      "inputs": [
        {
          "name": "account",
          "type": "address"
        },
        {
          "name": "value",
          "type": "uint256"
        }
      ],
      "name": "_mint",
      "outputs": [
        {
          "name": "",
          "type": "uint256"
        }
      ],
      "payable": false,
      "stateMutability": "nonpayable",
      "type": "function",
      "signature": "0x4e6ec247"
    },
    {
      "constant": true,
      "inputs": [
        {
          "name": "owner",
          "type": "address"
        }
      ],
      "name": "balanceOf",
      "outputs": [
        {
          "name": "",
          "type": "uint256"
        }
      ],
      "payable": false,
      "stateMutability": "view",
      "type": "function",
      "signature": "0x70a08231"
    },
    {
      "constant": true,
      "inputs": [],
      "name": "symbol",
      "outputs": [
        {
          "name": "",
          "type": "string"
        }
      ],
      "payable": false,
      "stateMutability": "view",
      "type": "function",
      "signature": "0x95d89b41"
    },
    {
      "constant": false,
      "inputs": [
        {
          "name": "spender",
          "type": "address"
        },
        {
          "name": "subtractedValue",
          "type": "uint256"
        }
      ],
      "name": "decreaseAllowance",
      "outputs": [
        {
          "name": "",
          "type": "bool"
        }
      ],
      "payable": false,
      "stateMutability": "nonpayable",
      "type": "function",
      "signature": "0xa457c2d7"
    },
    {
      "constant": false,
      "inputs": [
        {
          "name": "to",
          "type": "address"
        },
        {
          "name": "value",
          "type": "uint256"
        }
      ],
      "name": "transfer",
      "outputs": [
        {
          "name": "",
          "type": "bool"
        }
      ],
      "payable": false,
      "stateMutability": "nonpayable",
      "type": "function",
      "signature": "0xa9059cbb"
    },
    {
      "constant": true,
      "inputs": [],
      "name": "_symbol",
      "outputs": [
        {
          "name": "",
          "type": "string"
        }
      ],
      "payable": false,
      "stateMutability": "view",
      "type": "function",
      "signature": "0xb09f1266"
    },
    {
      "constant": true,
      "inputs": [],
      "name": "_name",
      "outputs": [
        {
          "name": "",
          "type": "string"
        }
      ],
      "payable": false,
      "stateMutability": "view",
      "type": "function",
      "signature": "0xd28d8852"
    },
    {
      "constant": true,
      "inputs": [
        {
          "name": "owner",
          "type": "address"
        },
        {
          "name": "spender",
          "type": "address"
        }
      ],
      "name": "allowance",
      "outputs": [
        {
          "name": "",
          "type": "uint256"
        }
      ],
      "payable": false,
      "stateMutability": "view",
      "type": "function",
      "signature": "0xdd62ed3e"
    },
    {
      "inputs": [
        {
          "name": "_name",
          "type": "string"
        },
        {
          "name": "_symbol",
          "type": "string"
        },
        {
          "name": "_decimals",
          "type": "uint8"
        }
      ],
      "payable": false,
      "stateMutability": "nonpayable",
      "type": "constructor",
      "signature": "constructor"
    },
    {
      "anonymous": false,
      "inputs": [],
      "name": "sendfunds",
      "type": "event",
      "signature": "0x883b8d54d3cdabbcca26732b9b01c540c9516154f7863cd0249f52db333b1b49"
    },
    {
      "anonymous": false,
      "inputs": [],
      "name": "togglepause",
      "type": "event",
      "signature": "0x6fde598a2508a6dc5a35150c955b7b6e55d648f1a2e7ac1d692667097eaf063a"
    },
    {
      "anonymous": false,
      "inputs": [
        {
          "indexed": true,
          "name": "from",
          "type": "address"
        },
        {
          "indexed": true,
          "name": "to",
          "type": "address"
        },
        {
          "indexed": false,
          "name": "value",
          "type": "uint256"
        }
      ],
      "name": "Transfer",
      "type": "event",
      "signature": "0xddf252ad1be2c89b69c2b068fc378daa952ba7f163c4a11628f55a4df523b3ef"
    },
    {
      "anonymous": false,
      "inputs": [
        {
          "indexed": true,
          "name": "owner",
          "type": "address"
        },
        {
          "indexed": true,
          "name": "spender",
          "type": "address"
        },
        {
          "indexed": false,
          "name": "value",
          "type": "uint256"
        }
      ],
      "name": "Approval",
      "type": "event",
      "signature": "0x8c5be1e5ebec7d5bd14f71427d1e84f3dd0314c0f7b2291e5b200ac8c7c3b925"
    },
    {
      "constant": false,
      "inputs": [
        {
          "name": "_id",
          "type": "uint256"
        }
      ],
      "name": "sendFunds",
      "outputs": [
        {
          "name": "",
          "type": "bool"
        }
      ],
      "payable": true,
      "stateMutability": "payable",
      "type": "function",
      "signature": "0x8b281018"
    },
    {
      "constant": false,
      "inputs": [
        {
          "name": "_id",
          "type": "uint256"
        }
      ],
      "name": "campaignVote",
      "outputs": [
        {
          "name": "",
          "type": "bool"
        }
      ],
      "payable": false,
      "stateMutability": "nonpayable",
      "type": "function",
      "signature": "0xbe86e8f5"
    },
    {
      "constant": false,
      "inputs": [
        {
          "name": "_id",
          "type": "uint256"
        }
      ],
      "name": "setApprovalState",
      "outputs": [
        {
          "name": "",
          "type": "bool"
        }
      ],
      "payable": false,
      "stateMutability": "nonpayable",
      "type": "function",
      "signature": "0xfafa2d5a"
    },
    {
      "constant": true,
      "inputs": [
        {
          "name": "_id",
          "type": "uint256"
        }
      ],
      "name": "getVotes",
      "outputs": [
        {
          "name": "votes",
          "type": "uint256"
        }
      ],
      "payable": false,
      "stateMutability": "view",
      "type": "function",
      "signature": "0xff981099"
    },
    {
      "constant": true,
      "inputs": [
        {
          "name": "_id",
          "type": "uint256"
        }
      ],
      "name": "getStatus",
      "outputs": [
        {
          "name": "status",
          "type": "bool"
        }
      ],
      "payable": false,
      "stateMutability": "view",
      "type": "function",
      "signature": "0x5c622a0e"
    },
    {
      "constant": true,
      "inputs": [
        {
          "name": "_id",
          "type": "uint256"
        }
      ],
      "name": "getFunding",
      "outputs": [
        {
          "name": "funding",
          "type": "uint256"
        }
      ],
      "payable": false,
      "stateMutability": "view",
      "type": "function",
      "signature": "0xebed4bd4"
    },
    {
      "constant": true,
      "inputs": [],
      "name": "getPaused",
      "outputs": [
        {
          "name": "",
          "type": "bool"
        }
      ],
      "payable": false,
      "stateMutability": "view",
      "type": "function",
      "signature": "0x6805b84b"
    },
    {
      "constant": false,
      "inputs": [],
      "name": "togglePause",
      "outputs": [
        {
          "name": "",
          "type": "bool"
        }
      ],
      "payable": false,
      "stateMutability": "nonpayable",
      "type": "function",
      "signature": "0xc4ae3168"
    }
  ],
  "bytecode": "0x60806040526000600560156101000a81548160ff0219169083151502179055503480156200002c57600080fd5b50604051620021d8380380620021d8833981018060405260608110156200005257600080fd5b8101908080516401000000008111156200006b57600080fd5b828101905060208101848111156200008257600080fd5b8151856001820283011164010000000082111715620000a057600080fd5b50509291906020018051640100000000811115620000bd57600080fd5b82810190506020810184811115620000d457600080fd5b8151856001820283011164010000000082111715620000f257600080fd5b50509291906020018051906020019092919050505082828282600390805190602001906200012292919062000360565b5081600490805190602001906200013b92919062000360565b5080600560006101000a81548160ff021916908360ff16021790555050505033600560016101000a81548173ffffffffffffffffffffffffffffffffffffffff021916908373ffffffffffffffffffffffffffffffffffffffff160217905550620001f160016040805190810160405280600581526020017f4b656e79610000000000000000000000000000000000000000000000000000008152506000806000620002a9640100000000026401000000009004565b506200024860026040805190810160405280600881526020017f43616d626f6469610000000000000000000000000000000000000000000000008152506000806000620002a9640100000000026401000000009004565b506200029f60036040805190810160405280600981526020017f496e646f6e6573696100000000000000000000000000000000000000000000008152506000806000620002a9640100000000026401000000009004565b505050506200040f565b600085600660008881526020019081526020016000206000018190555084600660008881526020019081526020016000206001019080519060200190620002f292919062000360565b50836006600088815260200190815260200160002060020181905550826006600088815260200190815260200160002060030181905550816006600088815260200190815260200160002060040160006101000a81548160ff02191690831515021790555095945050505050565b828054600181600116156101000203166002900490600052602060002090601f016020900481019282601f10620003a357805160ff1916838001178555620003d4565b82800160010185558215620003d4579182015b82811115620003d3578251825591602001919060010190620003b6565b5b509050620003e39190620003e7565b5090565b6200040c91905b8082111562000408576000816000905550600101620003ee565b5090565b90565b611db9806200041f6000396000f3fe608060405260043610610149576000357c0100000000000000000000000000000000000000000000000000000000900463ffffffff16806306fdde031461014e578063095ea7b3146101de578063141961bc1461025157806318160ddd1461032557806323b872dd14610350578063313ce567146103e357806332424aa31461041457806339509351146104455780633eaaf86b146104b85780634e6ec247146104e35780635c622a0e146105525780636805b84b146105a557806370a08231146105d45780638b2810181461063957806395d89b411461067f578063a457c2d71461070f578063a9059cbb14610782578063b09f1266146107f5578063be86e8f514610885578063c4ae3168146108d8578063d28d885214610907578063dd62ed3e14610997578063ebed4bd414610a1c578063fafa2d5a14610a6b578063ff98109914610abe575b600080fd5b34801561015a57600080fd5b50610163610b0d565b6040518080602001828103825283818151815260200191508051906020019080838360005b838110156101a3578082015181840152602081019050610188565b50505050905090810190601f1680156101d05780820380516001836020036101000a031916815260200191505b509250505060405180910390f35b3480156101ea57600080fd5b506102376004803603604081101561020157600080fd5b81019080803573ffffffffffffffffffffffffffffffffffffffff16906020019092919080359060200190929190505050610baf565b604051808215151515815260200191505060405180910390f35b34801561025d57600080fd5b5061028a6004803603602081101561027457600080fd5b8101908080359060200190929190505050610cdc565b604051808681526020018060200185815260200184815260200183151515158152602001828103825286818151815260200191508051906020019080838360005b838110156102e65780820151818401526020810190506102cb565b50505050905090810190601f1680156103135780820380516001836020036101000a031916815260200191505b50965050505050505060405180910390f35b34801561033157600080fd5b5061033a610db7565b6040518082815260200191505060405180910390f35b34801561035c57600080fd5b506103c96004803603606081101561037357600080fd5b81019080803573ffffffffffffffffffffffffffffffffffffffff169060200190929190803573ffffffffffffffffffffffffffffffffffffffff16906020019092919080359060200190929190505050610dc1565b604051808215151515815260200191505060405180910390f35b3480156103ef57600080fd5b506103f8610f73565b604051808260ff1660ff16815260200191505060405180910390f35b34801561042057600080fd5b50610429610f8a565b604051808260ff1660ff16815260200191505060405180910390f35b34801561045157600080fd5b5061049e6004803603604081101561046857600080fd5b81019080803573ffffffffffffffffffffffffffffffffffffffff16906020019092919080359060200190929190505050610f9d565b604051808215151515815260200191505060405180910390f35b3480156104c457600080fd5b506104cd6111d4565b6040518082815260200191505060405180910390f35b3480156104ef57600080fd5b5061053c6004803603604081101561050657600080fd5b81019080803573ffffffffffffffffffffffffffffffffffffffff169060200190929190803590602001909291905050506111da565b6040518082815260200191505060405180910390f35b34801561055e57600080fd5b5061058b6004803603602081101561057557600080fd5b8101908080359060200190929190505050611336565b604051808215151515815260200191505060405180910390f35b3480156105b157600080fd5b506105ba611363565b604051808215151515815260200191505060405180910390f35b3480156105e057600080fd5b50610623600480360360208110156105f757600080fd5b81019080803573ffffffffffffffffffffffffffffffffffffffff16906020019092919050505061137a565b6040518082815260200191505060405180910390f35b6106656004803603602081101561064f57600080fd5b81019080803590602001909291905050506113c2565b604051808215151515815260200191505060405180910390f35b34801561068b57600080fd5b506106946114af565b6040518080602001828103825283818151815260200191508051906020019080838360005b838110156106d45780820151818401526020810190506106b9565b50505050905090810190601f1680156107015780820380516001836020036101000a031916815260200191505b509250505060405180910390f35b34801561071b57600080fd5b506107686004803603604081101561073257600080fd5b81019080803573ffffffffffffffffffffffffffffffffffffffff16906020019092919080359060200190929190505050611551565b604051808215151515815260200191505060405180910390f35b34801561078e57600080fd5b506107db600480360360408110156107a557600080fd5b81019080803573ffffffffffffffffffffffffffffffffffffffff16906020019092919080359060200190929190505050611788565b604051808215151515815260200191505060405180910390f35b34801561080157600080fd5b5061080a61179f565b6040518080602001828103825283818151815260200191508051906020019080838360005b8381101561084a57808201518184015260208101905061082f565b50505050905090810190601f1680156108775780820380516001836020036101000a031916815260200191505b509250505060405180910390f35b34801561089157600080fd5b506108be600480360360208110156108a857600080fd5b810190808035906020019092919050505061183d565b604051808215151515815260200191505060405180910390f35b3480156108e457600080fd5b506108ed611908565b604051808215151515815260200191505060405180910390f35b34801561091357600080fd5b5061091c611975565b6040518080602001828103825283818151815260200191508051906020019080838360005b8381101561095c578082015181840152602081019050610941565b50505050905090810190601f1680156109895780820380516001836020036101000a031916815260200191505b509250505060405180910390f35b3480156109a357600080fd5b50610a06600480360360408110156109ba57600080fd5b81019080803573ffffffffffffffffffffffffffffffffffffffff169060200190929190803573ffffffffffffffffffffffffffffffffffffffff169060200190929190505050611a13565b6040518082815260200191505060405180910390f35b348015610a2857600080fd5b50610a5560048036036020811015610a3f57600080fd5b8101908080359060200190929190505050611a9a565b6040518082815260200191505060405180910390f35b348015610a7757600080fd5b50610aa460048036036020811015610a8e57600080fd5b8101908080359060200190929190505050611aba565b604051808215151515815260200191505060405180910390f35b348015610aca57600080fd5b50610af760048036036020811015610ae157600080fd5b8101908080359060200190929190505050611b11565b6040518082815260200191505060405180910390f35b606060038054600181600116156101000203166002900480601f016020809104026020016040519081016040528092919081815260200182805460018160011615610100020316600290048015610ba55780601f10610b7a57610100808354040283529160200191610ba5565b820191906000526020600020905b815481529060010190602001808311610b8857829003601f168201915b5050505050905090565b60008073ffffffffffffffffffffffffffffffffffffffff168373ffffffffffffffffffffffffffffffffffffffff1614151515610bec57600080fd5b81600160003373ffffffffffffffffffffffffffffffffffffffff1673ffffffffffffffffffffffffffffffffffffffff16815260200190815260200160002060008573ffffffffffffffffffffffffffffffffffffffff1673ffffffffffffffffffffffffffffffffffffffff168152602001908152602001600020819055508273ffffffffffffffffffffffffffffffffffffffff163373ffffffffffffffffffffffffffffffffffffffff167f8c5be1e5ebec7d5bd14f71427d1e84f3dd0314c0f7b2291e5b200ac8c7c3b925846040518082815260200191505060405180910390a36001905092915050565b6006602052806000526040600020600091509050806000015490806001018054600181600116156101000203166002900480601f016020809104026020016040519081016040528092919081815260200182805460018160011615610100020316600290048015610d8e5780601f10610d6357610100808354040283529160200191610d8e565b820191906000526020600020905b815481529060010190602001808311610d7157829003601f168201915b5050505050908060020154908060030154908060040160009054906101000a900460ff16905085565b6000600254905090565b6000600160008573ffffffffffffffffffffffffffffffffffffffff1673ffffffffffffffffffffffffffffffffffffffff16815260200190815260200160002060003373ffffffffffffffffffffffffffffffffffffffff1673ffffffffffffffffffffffffffffffffffffffff168152602001908152602001600020548211151515610e4e57600080fd5b610edd82600160008773ffffffffffffffffffffffffffffffffffffffff1673ffffffffffffffffffffffffffffffffffffffff16815260200190815260200160002060003373ffffffffffffffffffffffffffffffffffffffff1673ffffffffffffffffffffffffffffffffffffffff16815260200190815260200160002054611b3190919063ffffffff16565b600160008673ffffffffffffffffffffffffffffffffffffffff1673ffffffffffffffffffffffffffffffffffffffff16815260200190815260200160002060003373ffffffffffffffffffffffffffffffffffffffff1673ffffffffffffffffffffffffffffffffffffffff16815260200190815260200160002081905550610f68848484611b53565b600190509392505050565b6000600560009054906101000a900460ff16905090565b600560009054906101000a900460ff1681565b60008073ffffffffffffffffffffffffffffffffffffffff168373ffffffffffffffffffffffffffffffffffffffff1614151515610fda57600080fd5b61106982600160003373ffffffffffffffffffffffffffffffffffffffff1673ffffffffffffffffffffffffffffffffffffffff16815260200190815260200160002060008673ffffffffffffffffffffffffffffffffffffffff1673ffffffffffffffffffffffffffffffffffffffff16815260200190815260200160002054611d6c90919063ffffffff16565b600160003373ffffffffffffffffffffffffffffffffffffffff1673ffffffffffffffffffffffffffffffffffffffff16815260200190815260200160002060008573ffffffffffffffffffffffffffffffffffffffff1673ffffffffffffffffffffffffffffffffffffffff168152602001908152602001600020819055508273ffffffffffffffffffffffffffffffffffffffff163373ffffffffffffffffffffffffffffffffffffffff167f8c5be1e5ebec7d5bd14f71427d1e84f3dd0314c0f7b2291e5b200ac8c7c3b925600160003373ffffffffffffffffffffffffffffffffffffffff1673ffffffffffffffffffffffffffffffffffffffff16815260200190815260200160002060008773ffffffffffffffffffffffffffffffffffffffff1673ffffffffffffffffffffffffffffffffffffffff168152602001908152602001600020546040518082815260200191505060405180910390a36001905092915050565b60025481565b60008073ffffffffffffffffffffffffffffffffffffffff168373ffffffffffffffffffffffffffffffffffffffff161415151561121757600080fd5b61122c82600254611d6c90919063ffffffff16565b600281905550611283826000808673ffffffffffffffffffffffffffffffffffffffff1673ffffffffffffffffffffffffffffffffffffffff16815260200190815260200160002054611d6c90919063ffffffff16565b6000808573ffffffffffffffffffffffffffffffffffffffff1673ffffffffffffffffffffffffffffffffffffffff168152602001908152602001600020819055508273ffffffffffffffffffffffffffffffffffffffff16600073ffffffffffffffffffffffffffffffffffffffff167fddf252ad1be2c89b69c2b068fc378daa952ba7f163c4a11628f55a4df523b3ef846040518082815260200191505060405180910390a3600254905092915050565b60006006600083815260200190815260200160002060040160009054906101000a900460ff169050919050565b6000600560159054906101000a900460ff16905090565b60008060008373ffffffffffffffffffffffffffffffffffffffff1673ffffffffffffffffffffffffffffffffffffffff168152602001908152602001600020549050919050565b6000600560159054906101000a900460ff16151515611449576040517f08c379a000000000000000000000000000000000000000000000000000000000815260040180806020018281038252601b8152602001807f2a2a2a4170706c69636174696f6e206973207061757365642a2a2a000000000081525060200191505060405180910390fd5b61145533306005611b53565b600560066000848152602001908152602001600020600201600082825401925050819055507f883b8d54d3cdabbcca26732b9b01c540c9516154f7863cd0249f52db333b1b4960405160405180910390a160019050919050565b606060048054600181600116156101000203166002900480601f0160208091040260200160405190810160405280929190818152602001828054600181600116156101000203166002900480156115475780601f1061151c57610100808354040283529160200191611547565b820191906000526020600020905b81548152906001019060200180831161152a57829003601f168201915b5050505050905090565b60008073ffffffffffffffffffffffffffffffffffffffff168373ffffffffffffffffffffffffffffffffffffffff161415151561158e57600080fd5b61161d82600160003373ffffffffffffffffffffffffffffffffffffffff1673ffffffffffffffffffffffffffffffffffffffff16815260200190815260200160002060008673ffffffffffffffffffffffffffffffffffffffff1673ffffffffffffffffffffffffffffffffffffffff16815260200190815260200160002054611b3190919063ffffffff16565b600160003373ffffffffffffffffffffffffffffffffffffffff1673ffffffffffffffffffffffffffffffffffffffff16815260200190815260200160002060008573ffffffffffffffffffffffffffffffffffffffff1673ffffffffffffffffffffffffffffffffffffffff168152602001908152602001600020819055508273ffffffffffffffffffffffffffffffffffffffff163373ffffffffffffffffffffffffffffffffffffffff167f8c5be1e5ebec7d5bd14f71427d1e84f3dd0314c0f7b2291e5b200ac8c7c3b925600160003373ffffffffffffffffffffffffffffffffffffffff1673ffffffffffffffffffffffffffffffffffffffff16815260200190815260200160002060008773ffffffffffffffffffffffffffffffffffffffff1673ffffffffffffffffffffffffffffffffffffffff168152602001908152602001600020546040518082815260200191505060405180910390a36001905092915050565b6000611795338484611b53565b6001905092915050565b60048054600181600116156101000203166002900480601f0160208091040260200160405190810160405280929190818152602001828054600181600116156101000203166002900480156118355780601f1061180a57610100808354040283529160200191611835565b820191906000526020600020905b81548152906001019060200180831161181857829003601f168201915b505050505081565b6000600560159054906101000a900460ff161515156118c4576040517f08c379a000000000000000000000000000000000000000000000000000000000815260040180806020018281038252601b8152602001807f2a2a2a4170706c69636174696f6e206973207061757365642a2a2a000000000081525060200191505060405180910390fd5b6118d033306005611b53565b600560066000848152602001908152602001600020600301600082825401925050819055506118fe82611aba565b5060019050919050565b6000600560159054906101000a900460ff1615600560156101000a81548160ff0219169083151502179055507f6fde598a2508a6dc5a35150c955b7b6e55d648f1a2e7ac1d692667097eaf063a60405160405180910390a1600560159054906101000a900460ff16905090565b60038054600181600116156101000203166002900480601f016020809104026020016040519081016040528092919081815260200182805460018160011615610100020316600290048015611a0b5780601f106119e057610100808354040283529160200191611a0b565b820191906000526020600020905b8154815290600101906020018083116119ee57829003601f168201915b505050505081565b6000600160008473ffffffffffffffffffffffffffffffffffffffff1673ffffffffffffffffffffffffffffffffffffffff16815260200190815260200160002060008373ffffffffffffffffffffffffffffffffffffffff1673ffffffffffffffffffffffffffffffffffffffff16815260200190815260200160002054905092915050565b600060066000838152602001908152602001600020600201549050919050565b6000604b6006600084815260200190815260200160002060030154101515611b0c5760016006600084815260200190815260200160002060040160006101000a81548160ff0219169083151502179055505b919050565b600060066000838152602001908152602001600020600301549050919050565b6000828211151515611b4257600080fd5b600082840390508091505092915050565b6000808473ffffffffffffffffffffffffffffffffffffffff1673ffffffffffffffffffffffffffffffffffffffff168152602001908152602001600020548111151515611ba057600080fd5b600073ffffffffffffffffffffffffffffffffffffffff168273ffffffffffffffffffffffffffffffffffffffff1614151515611bdc57600080fd5b611c2d816000808673ffffffffffffffffffffffffffffffffffffffff1673ffffffffffffffffffffffffffffffffffffffff16815260200190815260200160002054611b3190919063ffffffff16565b6000808573ffffffffffffffffffffffffffffffffffffffff1673ffffffffffffffffffffffffffffffffffffffff16815260200190815260200160002081905550611cc0816000808573ffffffffffffffffffffffffffffffffffffffff1673ffffffffffffffffffffffffffffffffffffffff16815260200190815260200160002054611d6c90919063ffffffff16565b6000808473ffffffffffffffffffffffffffffffffffffffff1673ffffffffffffffffffffffffffffffffffffffff168152602001908152602001600020819055508173ffffffffffffffffffffffffffffffffffffffff168373ffffffffffffffffffffffffffffffffffffffff167fddf252ad1be2c89b69c2b068fc378daa952ba7f163c4a11628f55a4df523b3ef836040518082815260200191505060405180910390a3505050565b6000808284019050838110151515611d8357600080fd5b809150509291505056fea165627a7a723058206d98f67640531987814f6f2fba0011cb1b3e58318684e7e711d6d9a19f4be3050029",
  "source": "pragma solidity ^0.5.0;\n\nimport \"./ERC20.sol\";\n\ncontract cwToken is ERC20 {\n\n// @dev - define state variables\n\taddress owner;\n\tbool paused = false;\n\tstruct campaign {\n\t\tuint campaignID;\n\t\tstring name;\n\t\tuint dedicatedFunding;\n\t\tuint votes;\n\t\tbool approvalState;\n\t}\n\n// @dev - mapping to manage state variables by campaign\n\tmapping (uint => campaign) public campaigns;\n\tevent sendfunds();\n\tevent togglepause();\n\n// @dev - modifier to implement the toggle pause circuit breaker\n\tmodifier whenNotPaused(){\n\t\trequire(!paused, '***Application is paused***');\n\t\t_;\n\t}\n\n// Initial constructor\n// @dev - called by the deployment method in the deployment script JS file and creates the tokens and campaigns\n// @dev - creates contract owner\n\tconstructor(string memory _name, string memory _symbol, uint8 _decimals) \n\t\tERC20(_name, _symbol, _decimals) \n\t\tpublic \n\t\t{\n\t\towner = msg.sender;\n\t\t// paused = false;\n\t\tcreateCampaign(1, \"Kenya\", 0, 0, false);\n\t\tcreateCampaign(2, \"Cambodia\", 0, 0, false);\n\t\tcreateCampaign(3, \"Indonesia\", 0, 0, false);\n\t\t}\n\n// Create campaigns\n//@ dev - no inputs required because function is called in the constructor with set parameters\n//@ dev - to create new campaigns, do so in the contract deployment with the constructor\n\tfunction createCampaign(uint _id, string memory _name, uint _dedicatedFunding, uint _votes, bool _approvalState) internal returns(bool){\n\t\tcampaigns[_id].campaignID = _id;\n\t\tcampaigns[_id].name = _name;\n\t\tcampaigns[_id].dedicatedFunding = _dedicatedFunding;\n\t\tcampaigns[_id].votes = _votes;\n\t\tcampaigns[_id].approvalState = _approvalState;\n\t}\n\n// Funding & Voting\n\n//@ dev - input parameter is the campaign ID\n//@ returns - boolean to confirm execution\n\tfunction sendFunds(uint _id)\n\t\twhenNotPaused \n\t\tpublic \n\t\tpayable \n\t\treturns(bool){\n\t\t\t_transfer(msg.sender, address (this), 5);\n\t\t\tcampaigns[_id].dedicatedFunding += 5;\n\t\t\temit sendfunds();\n\t\t\treturn(true);\n\t\t}\n\n//@ dev - input parameter is the campaign ID\n//@ dev - function to check approval status called within - nested functions FYI\n//@ returns - boolean to confirm execution\n\tfunction campaignVote(uint _id) \n\t\twhenNotPaused\n\t\tpublic\n\t\treturns(bool){\n\t\t\t_transfer(msg.sender, address (this), 5);\n\t\t\tcampaigns[_id].votes += 5;\n\t\t\tsetApprovalState(_id);\n\t\t\treturn(true);\n\t\t}\n\n//@ dev - input parameter is the campaign ID\n\tfunction setApprovalState (uint _id) \n\t\tpublic\n\t\treturns(bool){\n\t\t\tif(campaigns[_id].votes >= 75) {\n\t\t\t\tcampaigns[_id].approvalState = true;\n\t\t\t}\n\t\t}\n\n//@ dev - input parameter is the campaign ID\n//@ returns - state value\n\t  function getVotes(uint _id) public view returns (uint votes) {\n\t    votes = campaigns[_id].votes;\n\t    // return (votes);\n\t  }\n\n//@ dev - input parameters is the campaign ID\n//@ returns - state value\n\t  function getStatus(uint _id) public view returns (bool status) {\n\t    status = campaigns[_id].approvalState;\n\t    // return (status);\n\t  }\n\n//@ dev - input parameter is the campaign ID\n//@ returns - state value\n\t  function getFunding(uint _id) public view returns (uint funding) {\n\t    funding = campaigns[_id].dedicatedFunding;\n\t    // return (funding);\n\t  }\n\n//@ dev - get paused state status\n\t  function getPaused() public view returns (bool) {\n\t    return (paused);\n\t  }\n\n// Pause function\n\n//@ dev - function executes on button push or through a call on blockchain to stop transaction, uses the 'whenPaused' modifier\n//@ returns - return state\n\t\tfunction togglePause () \n\t\t\tpublic\n\t\t\treturns (bool) {\n\t\t\t\tpaused = !paused;\n\t\t\t\temit togglepause();\n\t\t\t\treturn (paused);\n\t\t\t}\n}\n",
  "sourcePath": "/Users/KyleMakinen/Documents/ConsenSys_Bootcamp/TEST/Clean-Water-Token/contracts/cwToken.sol",
  "compiler": {
    "name": "solc",
    "version": "0.5.0+commit.1d4f565a.Emscripten.clang"
  },
  "schemaVersion": "3.0.0",
  "updatedAt": "2019-01-27T21:21:46.538Z",
  "devdoc": {
    "methods": {
      "_mint(address,uint256)": {
        "details": "Internal function that mints an amount of the token and assigns it to an account. This encapsulates the modification of balances such that the proper events are emitted.",
        "params": {
          "account": "The account that will receive the created tokens.",
          "value": "The amount that will be created."
        }
      },
      "allowance(address,address)": {
        "details": "Function to check the amount of tokens that an owner allowed to a spender.",
        "params": {
          "owner": "address The address which owns the funds.",
          "spender": "address The address which will spend the funds."
        },
        "return": "A uint256 specifying the amount of tokens still available for the spender."
      },
      "approve(address,uint256)": {
        "details": "Approve the passed address to spend the specified amount of tokens on behalf of msg.sender. Beware that changing an allowance with this method brings the risk that someone may use both the old and the new allowance by unfortunate transaction ordering. One possible solution to mitigate this race condition is to first reduce the spender's allowance to 0 and set the desired value afterwards: https://github.com/ethereum/EIPs/issues/20#issuecomment-263524729",
        "params": {
          "spender": "The address which will spend the funds.",
          "value": "The amount of tokens to be spent."
        }
      },
      "balanceOf(address)": {
        "details": "Gets the balance of the specified address.",
        "params": {
          "owner": "The address to query the balance of."
        },
        "return": "An uint256 representing the amount owned by the passed address."
      },
      "decimals()": {
        "return": "the number of decimals of the token."
      },
      "decreaseAllowance(address,uint256)": {
        "details": "Decrease the amount of tokens that an owner allowed to a spender. approve should be called when allowed_[_spender] == 0. To decrement allowed value is better to use this function to avoid 2 calls (and wait until the first transaction is mined) From MonolithDAO Token.sol",
        "params": {
          "spender": "The address which will spend the funds.",
          "subtractedValue": "The amount of tokens to decrease the allowance by."
        }
      },
      "increaseAllowance(address,uint256)": {
        "details": "Increase the amount of tokens that an owner allowed to a spender. approve should be called when allowed_[_spender] == 0. To increment allowed value is better to use this function to avoid 2 calls (and wait until the first transaction is mined) From MonolithDAO Token.sol",
        "params": {
          "addedValue": "The amount of tokens to increase the allowance by.",
          "spender": "The address which will spend the funds."
        }
      },
      "name()": {
        "return": "the name of the token."
      },
      "symbol()": {
        "return": "the symbol of the token."
      },
      "transfer(address,uint256)": {
        "details": "Transfer token for a specified address",
        "params": {
          "to": "The address to transfer to.",
          "value": "The amount to be transferred."
        }
      },
      "transferFrom(address,address,uint256)": {
        "details": "Transfer tokens from one address to another",
        "params": {
          "from": "address The address which you want to send tokens from",
          "to": "address The address which you want to transfer to",
          "value": "uint256 the amount of tokens to be transferred"
        }
      }
    }
  },
  "userdoc": {
    "methods": {}
  }
}